:020000041000EA
:1000000000B5324B212058609868022188439860DF
:10001000D860186158612E4B002199600221596106
:100020000121F02299502B49196001219960352056
:1000300000F044F80222904214D00621196600F024
:1000400034F8196E01211966002018661A6600F04E
:100050002CF8196E196E196E052000F02FF8012189
:100060000842F9D1002199601B49196000215960AB
:100070001A491B48016001219960EB211966A021F2
:10008000196600F012F800219960164914480160C1
:100090000121996001BC002800D000471248134993
:1000A000086003C880F30888084703B5996A0420EC
:1000B0000142FBD001200142F8D103BD02B5186610
:1000C0001866FFF7F2FF186E186E02BD00000240BE
:1000D000000000180000070000035F00212200005C
:1000E000F4000018222000A00001001008ED00E03C
:1000F00000000000000000000000000074B24E7A12
:1001000000200420F7010010C3010010C5010010F9
:10011000C1010010C1010010C1010010C101001097
:10012000C1010010C1010010C1010010C701001081
:10013000C1010010C1010010C9010010CB01001065
:10014000CD010010CD010010CD010010CD01001037
:10015000CD010010CD010010CD010010CD01001027
:10016000CD010010CD010010CD010010CD01001017
:10017000CD010010CD010010CD010010CD01001007
:10018000CD010010CD010010CD010010CD010010F7
:10019000CD010010CD010010CD010010CD010010E7
:1001A000CD010010CD010010CD010010CD010010D7
:1001B000CD010010CD010010CD010010CD010010C7
:1001C00000BE00BE00BE00BE00BE00BEEFF3058054
:1001D000103800BEF2EB887198020110B8020110CD
:1001E0003802001090A31AE71E481F49086006C88D
:1001F00081F3088810471D480068002801D019487D
:10020000F3E70DA40ECC002902D000F012F8F9E7B4
:100210001749184A002000E001C19142FCD116495B
:100220008847164988471649884700BEFDE701C937
:1002300001C29A42FBD37047B8020110C0000020EF
:10024000401600203818011000000420000004208F
:1002500038180110001004200010042000000000D5
:10026000704700000000000008ED00E0000000D032
:1002700040160020F032022041690010D502001023
:1002800039690010F8B5C04606480749091A8B10AD
:10029000C90FC91810B5491003D0044B002B00D06A
:1002A000984710BD401600204016002000000000B6
:1002B000054B10B5002B03D00449054800E000BFF2
:1002C000FFF7E2FF10BDC04600000000C42500207B
:1002D000B8DC0010F0B5C64600B582B006F06EFC82
:1002E000FA20C00003F000FD00F026F900F0F6FA55
:1002F0000021022009F002FE474C2060012009F095
:100300001BFF464D2860012009F016FF444E306067
:10031000012009F011FF434F3860012009F00CFF64
:10032000414B0022186008210A20984609F094FDEC
:100330003E4B18602368002B69D02B68002B66D0D9
:100340003368002B63D03B68002B60D043461B68AA
:10035000002B5CD000285AD0354806F07DFC354B88
:100360008022019301233449009312010023334872
:100370000BF0E0FC02248022314B324901930094BF
:100380000023120130480BF0D5FC80222F4B30495E
:10039000019300940023D2002E480BF0CBFC802266
:1003A0002D4B01342D490193D20000232C48009499
:1003B0000BF0C0FC80222B4B2B4901931201002330
:1003C0002A4800940BF0B6FC8022294B294901935E
:1003D00012010023284800940BF0ACFC274B80222C
:1003E00001930423264900931201002325480BF0B2
:1003F000A1FC254B80220193052324490093D200C0
:10040000002323480BF096FC0BF0BEFCFEE72148CE
:1004100006F022FCFEE7C04680300020AC2500201C
:1004200084300020B0250020842100209830002056
:10043000E8DC0010A02100201CDD0010C90E001017
:100440009821002028DD00106D0F0010942100205D
:1004500030DD001025130010902100203CDD00103D
:100460002D1400108C21002048DD001049150010CB
:100470009C21002054DD0010391D0010A421002013
:100480005CDD0010D91A00108821002068DD001002
:10049000A5100010B8DC001070B5214D04002A68CA
:1004A00093009B189B001F4A00282FDD9446A02232
:1004B000634492005A60052003F0F6FE04F009FD43
:1004C000194904F0B0FC061C200004F007FD011CD3
:1004D000301C04F0A8FCFE21890504F09EFC04F009
:1004E0001FFD2A6880B293009B180E4A9B009A1841
:1004F00010610E4A40089A181268000450400C4AD5
:10050000000C944600046344186070BD9A1811688A
:1005100001220A4007498C4663441A60F5E7C04649
:10052000C031002000000540000020420C000540C2
:100530000C10054000100540F0B5D6464F46464623
:100540000D20C0B502F0A4FDD024802324069B0119
:1005500063620B2002F09CFD80231B0163620C2070
:1005600002F096FD80235B016362052002F090FD9E
:1005700020230022A3620121052002F061FD062054
:1005800002F086FD40230022A3620121062002F032
:1005900057FD162002F07CFD8023DB03A3620022BE
:1005A0000121162002F04CFD0CF076FC1F211C20CE
:1005B00002F02CFD002200211C2002F041FD002150
:1005C0001C2002F051FD1F211A2002F01FFD002205
:1005D00000211A2002F034FD00211A2002F044FD0F
:1005E0001F211B2002F012FD002200211B2002F01F
:1005F00027FD00211B2002F037FD6E4801F038FC7A
:100600006D496E480CF08CFD0321002002F0FEFCC9
:100610000321012002F0FAFC00220121002002F057
:100620000FFD00220121012002F00AFD042110200B
:1006300002F0ECFC0421102002F0E8FC0421102060
:1006400002F0E4FC0421102002F0E0FC00225C49EE
:100650005C4B8C461A605C4E5C4D9A465C4F5D4B21
:10066000A0203A6032602A6064461A609A60DA60BC
:10067000196101218000586019601A609A60DA607F
:100680001C61586019601A609A60DA601C615860D9
:1006900019601A609A60DA601C61586019604E4BEC
:1006A0004E4C181C984602F001FA4D4B1B685840FE
:1006B00000044A4B000C186033684046994602F02B
:1006C000F5F94B46A4469B004B44454A9B009A18BB
:1006D0001268634450400004000C18602B684046C8
:1006E000994602F0E3F94B46A4469B004B443C4A32
:1006F0009B009A181268634450400004000C186074
:1007000053461B684046994602F0D0F94B46A44632
:100710009B004B44324A9B009A1812686344504035
:100720000004000C1860FA20400003F0DDFAA44633
:100730003A682B4993009B189B005A18126863442F
:100740001204120C1A603268264893009B189B0012
:100750005A18126863441204120C1A602A68930033
:100760009B189B005A18126863441204120C1A60FA
:1007700053461A6893009B189B005A18E12112688F
:1007800063441204120C1A60490203F00FFC0221A8
:10079000082002F03BFC0221092002F037FC09226C
:1007A0000821114806F0DCFAE0BCBA46B146A8467A
:1007B000F0BDC046DC250020A0860100D01000203E
:1007C00023F40000B0310020B8310020BC310020FB
:1007D000B4310020000005400000B4420C10054078
:1007E0000C0005400080034070DD001070B5D0247F
:1007F00080252406AD010D4806F02EFA6561FA2029
:100800000BF0A0FCA56180252D016561FA200BF09D
:1008100099FCA56180256D016561FA200BF092FCC1
:10082000A561034806F018FA70BDC0469CDD0010B3
:10083000BCDD001010B5D0242406094806F00CFADF
:10084000616808488906C90F06F08AFA6168064897
:100850004906C90F06F084FA044806F0FDF910BDF8
:10086000D8DD001008DE00101CDE001030DE0010A5
:1008700010B5134806F0F0F98023124A9B01116865
:100880004B40E021C9010B400F490B6004210F4B85
:100890001960FC3113680B42FCD050680004000C56
:1008A00004F01CFB0A4904F0D2FA04F03FFB0200FA
:1008B0000B00084806F054FA074806F0CDF910BDC1
:1008C00048DE001000C0044000D0044000E00440B6
:1008D0003333533A68DE001090DE001010B5042167
:1008E000152002F093FB0223A022184C92002360F3
:1008F000174B0520DA6203F0D7FC04F0EAFA154939
:1009000004F091FA144904F08EFAFE21890504F0EE
:1009100084FA04F005FB2268104993009B180C4AE6
:100920009B009A1880B210615918096840080004A9
:1009300048400B49000C5918000408601168012256
:100940000A4008498C4663441A6010BDC03100203B
:1009500000000540000020420000FA430C00054062
:100960000C10054000100540074B1A6893009B18B7
:10097000064A9B009A181268424001201040044A1F
:100980009446634418607047C03100200000054061
:1009900000100540F8B53D4806F05EF93C4CA02635
:1009A0002268B60093009B183A4A9B009446634421
:1009B0005E60052003F078FC04F08BFA364904F001
:1009C00032FA364904F02FFAFE21890504F025FA9F
:1009D00004F0A6FA22682F4F93009B189B00304921
:1009E000DA1980B21061591809682E4D40080004C8
:1009F000484059190125000C0004086028001268BD
:100A0000904302002848844663441A6096200BF005
:100A100099FBBC462268052093009B189B00634409
:100A20005E6003F041FC04F054FA1B4904F0FBF94A
:100A30001E4904F0F8F9FE21890504F0EEF904F0EE
:100A40006FFA2268164993009B189B00DA1980B24E
:100A500010615A181268400800045040114A000CF6
:100A6000944600046344186096200BF06BFB2268E8
:100A70000F4893009B189B00DA19126815400A4A28
:100A8000944663441D6006F0E7F8F8BDACDE001044
:100A9000C0310020000005400000204200007A44E0
:100AA0000C0005400C100540001005400000FA4302
:100AB000D4DE001010B50E4806F0CEF80D4C200024
:100AC00001F032FA03220C49200002F0A7F92000BD
:100AD00001F038FAFA20C0000BF034FB200001F0DE
:100AE00023FA200001F02EFA044806F0B5F810BDF4
:100AF000ECDE0010DC25002010DF00101CDF0010F1
:100B000010B5084806F0A8F80749084801F0DAFCD3
:100B1000002803D1064806F09FF810BD054806F0EE
:100B20009BF8FAE73CDF0010D0100020883000204E
:100B300064DF001094DF0010F0B5DE464F4600265B
:100B400080B56C4F85B06C4806F086F8009601972A
:100B500000220023694806F003F9002302AD9946FC
:100B60002B700023664C9B46290000226B60206896
:100B7000002309F0F7F9FA2080000BF0E3FA4B4666
:100B80002B70604B290000226B602068002309F065
:100B9000E9F9FA2080000BF0D5FA4B462B705A4B3E
:100BA000290000226B602068002309F0DBF9FA209D
:100BB00080000BF0C7FA00960197002200235348EB
:100BC00006F0CEF801232B705B46290000226B60F3
:100BD0002068002309F0C6F9FA2080000BF0B2FA71
:100BE00028004B4B06CB06C02900002299462068FE
:100BF000002309F0B7F9FA2080000BF0A3FA2800CF
:100C00004B4606CB06C029009946002200232068E7
:100C100009F0A8F9FA2080000BF094FA00960197E9
:100C2000002200233B4806F09BF802232B705B4612
:100C3000290000226B602068002309F093F9FA2054
:100C400080000BF07FFA28004B4606CB06C0290037
:100C5000002299462068002309F084F9FA208000D8
:100C60000BF070FA28004B4606CB06C029009946C7
:100C700000220023206809F075F9FA2080000BF0AB
:100C800061FA0096019700220023234806F068F8D5
:100C900003232B705B46290000226B602068002331
:100CA00009F060F9FA2080000BF04CFA4E462B0058
:100CB00006CE06C3290000220023206809F052F95D
:100CC000FA2080000BF03EFA2B0006CE06C300236C
:100CD00000222900206809F045F9FA2080000BF075
:100CE00031FA0E4805F0B8FF05B0C0BCBB46B146AE
:100CF000F0BDC04600806640C4DF001000E0001078
:100D000098300020000034430000B4422CE0001072
:100D100034E800105CE000108CE00010BCE0001033
:100D200070B51F4805F098FFE0211E4AC9011368FD
:100D30000B401D490B6004211C4B1960FC311368EA
:100D40000B42FCD08023516812685B015340E022C3
:100D5000D2011340144A802013600422134B400038
:100D60001A60104A13680342FCD0D0235468090467
:100D70001B06090C0E485D6805F0F2FF21040D48C2
:100D8000090C05F0EDFF6D0207D40B490B4805F087
:100D9000E7FF0B4805F060FF70BD0A49F6E7C04663
:100DA000DCE0001000C0044000D0044000E004403B
:100DB000FCE0001020E10010D4E0001044E100103D
:100DC00064E10010D8E00010F0B5D6464F46464624
:100DD000C0B5344B86B019689946334B020002AD5A
:100DE000180005F0BDFF2A00304B13CB13C21B685F
:100DF00013604B461B68002B4ADD2D4B002798469D
:100E000026E0201C2B4904F008F8041C0021201CBB
:100E100004F054F8002839D12749201C04F054F874
:100E2000002800D0244CAC51A868EB686A68296897
:100E30000090380001F06AFEFA2040000BF082F9C1
:100E400008239C464B461B680137E044BB421FDD2C
:100E500043465B6819499A4643461E785046B60099
:100E6000AC5904F023F80028CBD15046144904F0C3
:100E70001DF80028CAD00F49201C03F0D1FF041C24
:100E80000021201C04F01AF80028C5D00024CAE76D
:100E90000C4805F0E1FE06B0E0BCBA46B146A846F3
:100EA000F0BDC046342A002080E1001064E8001044
:100EB000382A0020000020410000344300008C420A
:100EC0000000DC42C4E1001010B5254805F0C4FE66
:100ED000FA20C0000BF036F9FFF788FCFA208000FA
:100EE0000BF030F9FFF7E6FDFA2080000BF02AF94D
:100EF000FFF750FDFA2080000BF024F9FFF79AFC71
:100F0000FA2080000BF01EF9FFF7B2FCFA208000F7
:100F10000BF018F9FFF704FFFA2080000BF012F92C
:100F2000FFF7EEFDFA2080000BF00CF9FFF704FE4E
:100F3000FA2080000BF006F90A4805F08DFE0A4CF5
:100F4000002300220021206809F00CF80023002271
:100F50000021206809F006F800200AF071FF10BD9A
:100F6000E8E100100CE2001080300020F8B501210B
:100F70004E46DE4657464546404BE0B51868494266
:100F8000002609F045FA012805D0F0BCBB46B24660
:100F9000A946A046F8BD3A4805F05EFE64200BF075
:100FA000D1F8384B002118009B4601F0A1FC364BCC
:100FB000364D9A46364B374F9946374B374C984605
:100FC00020E001212868494209F022FA012816D1BF
:100FD000200000F0A9FF01224946200001F01EFF79
:100FE00046452AD83100200001F09EFE200000F086
:100FF000A9FF002300220021286808F0B3FF642025
:101000000BF0A0F801212868494209F001FA0128F3
:1010100028D001213868494209F0FAF90128D0D1D5
:101020003300464500D91E4B5246002113803868D4
:101030000023002208F096FFC3E720000A222D219A
:1010400001F0B4FE200024222D2101F0AFFE20008B
:101050003E222D2101F0AAFE58222D21200001F070
:10106000A5FEC3E7584601F0C7FC00230600002296
:101070000021286808F076FFCBE7C04680300020CA
:1010800054E2001088300020E0320220AC2500201D
:1010900094E2001084300020FD1F0000DC250020B9
:1010A0000F270000F0B54E46DE4657464546012163
:1010B000E0B58E4B89B0186849420026002409F03B
:1010C000A7F9012806D009B0F0BCBB46B246A94634
:1010D000A046F0BD864805F0BFFD002300259946D7
:1010E000844B854F9846854B9B46854B0293854B99
:1010F0009A46854B0493854B0393854B0793854B09
:101100000593854B0693434601211868494209F02F
:101110007FF901285BD001213868494209F078F94C
:10112000012864D0002E6CD153461B78002B68D167
:10113000632C00D885E0962C00D9B6E04B46002BF6
:1011400000D0C4E0032D0DD0D02380221B069201D5
:101150005A61802212015A618022520100205A6194
:10116000FFF702FC049805F077FD0121039B49423B
:10117000186809F04DF9012800D1ABE02021674A39
:1011800093691942FCD1B0231360202263491500F2
:101190008B691D401A42FAD1FA200D6040000AF016
:1011A000D1FF059805F058FD069B00211868002224
:1011B000022300950BF05AFA012301219946434678
:1011C00049421868032509F023F90128A3D15B4699
:1011D0001C884346002118680022002308F0C2FE44
:1011E00001213868494209F013F901289AD1029B7C
:1011F00000221E7800210023386808F0B3FE002E7C
:1012000092D0632C1DD9962C39D8012D14D0D0231F
:1012100080221B0692015A61802212015A618022AB
:10122000520100209A61FFF79FFB96220023A24201
:101230005B414A461A409146C8200AF083FF0125C7
:1012400061E7022D0AD0D02380221B0692015A6149
:10125000802212019A61802252019A613048FFF780
:101260001BF90120FFF780FB64200AF06BFF0020D0
:10127000FFF77AFB64200AF065FF022543E7962317
:101280005B009C4204D2012DC1D100239946D3E7D3
:10129000002D02D00020FFF767FBFA2040000AF083
:1012A00051FF0023002599462DE796235B009C42C1
:1012B0000DD3002DF1D0D02380221B0692019A611C
:1012C000802212015A61802252019A61E2E7012DC7
:1012D000ABD09CE70023079A00211360039B0022F8
:1012E0001868002308F03EFE48E7C0468030002022
:1012F000A4E2001084300020B0250020E03202205B
:10130000A0310020E6320220DCE20010842100201F
:101310008021002018E30010A42100200080034059
:10132000DC050000F0B5DE4657464E464546E0B5C2
:10133000384883B005F090FC374B384C9946384B11
:10134000384F9B46E023DB019846D0231B065A68A2
:101350005E68924642465D6823681340324A1360D5
:10136000042380223B60520023681342FCD0636850
:101370002268019380235B015340424613402A4A6E
:101380001360042380223B60520023681342FCD088
:101390006368012100934B464942186809F038F808
:1013A000012833D1524601235946920676066D0232
:1013B000D20FF60FED0F5A405E405D40009B0A7061
:1013C00018044E708D70000C03F088FD8A21C90549
:1013D00003F023FDE821890503F039FD5B465860E1
:1013E000019B1804000C03F079FD8A21C90503F064
:1013F00014FDE821890503F02AFD5B4698604B4601
:10140000002218680021002308F0ACFD14200AF027
:1014100099FE9AE750E30010B025002000C0044078
:10142000A031002000E0044000D00440F0B5DE46CA
:1014300057464E464546E0B5364887B005F00CFCA9
:10144000354B00279A4604AB9946344B344E0093F3
:10145000344B354D0293354B0393354B9B46354BFF
:1014600001933CE0FC214046890503F02DFD002856
:1014700041D1BF214046090603F020FD002847D195
:101480002D4C2868211C03F011FD002824D10223D3
:101490004A461370009B2C601B785460002B0CD0C4
:1014A00002990B68C72B08DC5A1C0A60039ADB0000
:1014B00094464A46634403CA03C35B460022494636
:1014C0001868002308F04EFD201C03F02FFD0200D9
:1014D0000B00019805F044FC19200AF033FE0121AD
:1014E0003068494208F094FF012806D0002FB9D196
:1014F000124B2B60F0E7124CC3E753461F789B68F2
:101500000022984600210023306808F02BFDEDE70B
:101510000C4CB6E780E30010A0310020E832022036
:10152000B0250020342A002000100020382A002096
:1015300098300020B4E300100000B442000080BFE7
:1015400000008C420000DC42F0B5DE4657464546BE
:101550004E460023E0B5DE489FB00393059305F0A7
:101560007BFB002307939946DA4B01219846DA4B1F
:1015700049420C93D94B00240693D94B00270A9378
:10158000D84B00251293D84B1093D84B1193D84BBE
:101590001993D84B1693D84B1793D84B1893D84B15
:1015A0009A46D84B9B46D84B0F93D84B1493D84BA5
:1015B0001393D84B1593D84B0D93D84B0E934346AA
:1015C000186808F025FF012800D1BFE002F0A0FC58
:1015D000002900D1D0E0FA220023920003F0C4F8E1
:1015E00006000022012100200AF08AFF00280CD00A
:1015F000002D0AD1069B1B78002B06D10A9B1B6885
:10160000002B02DD1298FFF7DFFB002C00D1C8E0B1
:10161000002F00D0C5E0079BF31AFA2B00D8C0E0DA
:10162000012206990B7853400B7000D1AAE00A9B67
:1016300010981F6005F010FB039B002B00D0AAE060
:10164000059B07960493002D00D1CAE0D023802289
:101650001B069201022D00D1FAE0032D00D1C8E053
:101660005A61802212019A618022FC2152019A6102
:101670005B46089889051E6803F026FC002800D107
:10168000A5E1A749301C03F019FC002800D151E165
:101690008021301CC90503F0C3FB5B461860A14BD9
:1016A000061C99460021301C03F008FC002800D1DC
:1016B00042E100235A460027002613600F9B0B933C
:1016C0005346B6004946985903F0F0FB00282ED146
:1016D00053464A469A5118AB1F72069B1B921B78C1
:1016E000002B0CD00A990B68C72B08DC5A1C0A6027
:1016F000159ADB0094461AAA634403CA03C30D9BE0
:10170000002218681AA9002308F02CFC5B4698599F
:1017100003F00CFC060048460F0003F007FC320003
:10172000009001913B000B990E9805F019FB1920D0
:101730000AF008FD049B27009946434601211868DA
:10174000494208F065FE012800D03FE70C9B0021CC
:101750001A789C7803925A7805925A689B68089286
:101760000993434600221868002308F0FBFB02F0AF
:10177000CFFB002900D02EE7FA21890002F0B6FF46
:1017800006002EE70A9B1198196805F0E9FA039BF9
:10179000002B00D154E7079632200AF0D3FC270033
:1017A000CBE7039B002BF7D1059B0493002B00D1C3
:1017B00049E74B46002B1AD1079BF31AFA2B00D8A6
:1017C00041E7002D00D01AE1069B1B78002B00D0CA
:1017D00058E10A9B1B68002B00DD6CE10125AC463B
:1017E00013E15246504B1360536093609FE704939C
:1017F00029E79A61802212019A618022FC2152011C
:101800005A615B46089889059E6803F05DFB0028D5
:1018100000D1ABE04249301C03F050FB002846D019
:101820008021301CC90503F0FBFA5B4698603D4BF4
:10183000061C99460021301C03F040FB002838D0DC
:1018400000235A469360139B022702260B9337E727
:101850009A61802212015A618022FC2152019A6110
:101860005B46099889055E6803F02EFB002800D1CD
:1018700095E02B49301C03F021FB00286AD0802121
:10188000301CC90503F0CCFA5B465860274B061C98
:1018900099460021301C03F011FB00285CD0002386
:1018A0005A465360149B012701260B9308E7204BEF
:1018B00099461B4F301C391C03F006FB002801D051
:1018C0005B469F600227139B3E000B93F8E6C046E1
:1018D00004E40010B0250020A0310020E8320220EE
:1018E000342A002038E4001040E4001060E40010C6
:1018F00094E40010E632022064E800109CE400103A
:10190000F40F0020E80F0020ECE30010FCE30010CF
:10191000F4E30010382A002098300020B0E40010D2
:10192000000034430000DC42000080BF00008C4215
:101930000000B442634B9946634F301C391C03F0DE
:10194000C3FA002801D05B461F600F9B00270026CA
:101950000B93B5E65B4B99465B4F301C391C03F08B
:10196000B3FA00289ED05B465F609BE7BF210898D2
:10197000090603F0A3FA002800D180E00021301C02
:1019800003F0A2FA00286BD08021301CC90503F0B7
:1019900044FA5B4698604D4B061C99464AE7BF21C6
:1019A0000998090603F08AFA002862D00021301C49
:1019B00003F08AFA002841D08021301CC90503F0C9
:1019C0002CFA5B465860424B061C994661E7BF21E2
:1019D0000898090603F072FA00284DD00021301C47
:1019E00003F072FA002832D08021301CC90503F0C0
:1019F00014FA5B461860354B061C994652E60323E1
:101A00001A0001352A4094461500169B1AA91D702C
:101A1000179B103385CB85C11B680B60634608217B
:101A20009A0018AB5B189958189805F099F9524626
:101A3000284B079613605360936004E60021301C26
:101A400003F03CFA002828D01E4B994627E70021D6
:101A5000301C03F033FA002826D01A4B994628E6AA
:101A60000021301C03F02AFA00280FD0154B9946AC
:101A7000E6E6144B99460CE7124B994612E6114BD9
:101A80009946D7E6012301259C46BEE70227139B12
:101A90003E000B930B4B994612E60127149B3E0028
:101AA0000B93084B99460BE600270F9B3E000B93C8
:101AB000044B994604E61998FFF786F900239C46E3
:101AC000A3E7C0460000B4420000344300008C424B
:101AD0000000DC42000080BFF0B5DE464E464546C1
:101AE0005746E0B58DB0884808AE05F0B5F810222D
:101AF0000021300003F07EFA844B06AD0193844B45
:101B00009A46844B9B46844B0593844B9846844B62
:101B10000493844B0293844B0393844B9946002295
:101B2000012100200AF0ECFC002837D14346642252
:101B30002900186808F0DEFB01284DD12C786F6869
:101B400002F0E6F9002900D1B2E0FA220023920067
:101B500002F00AFEA300F050022C00D1B1E0022CEA
:101B600000D9B0E0002C00D1B2E0029B381C1C6808
:101B700000F09CFF6E49A3008C466E4A1B199B0027
:101B80009A181268634442401204120C1A60012130
:101B9000002200200AF0B4FC0028C7D0019805F00C
:101BA0005BF853460A21186808F032FC0128BDD1C1
:101BB0005B461B68002B00DD91E0534600220021AC
:101BC0001868002308F0CEF94346642229001868FB
:101BD00008F090FB0128B1D002F09AF9002979D0E1
:101BE000FA220023920002F0BFFD3368002B14D0CC
:101BF000FA22C31A520093420FD94D49049B8C46D6
:101C00001A6893009B184B4A9B009A181268634409
:101C10001204120C1A60002333607368002B14D076
:101C2000FA22C31A520093420FD94149029B8C46B3
:101C30001A6893009B183F4A9B009A1812686344E5
:101C40001204120C1A6000237360B368002B14D0C6
:101C5000FA22C31A520093420FD93549039B8C468E
:101C60001A6893009B18334A9B009A1812686344C1
:101C70001204120C1A600023B360F368002B00D129
:101C80004DE7C01AFA235B00984200D847E74B465D
:101C900027491A688C4693009B18264A9B009A187D
:101CA000126863441204120C1A600023F36036E7D2
:101CB000FA21890002F01AFDA300F050022C00D096
:101CC0004DE7039B52E74B46032C00D14EE726E736
:101CD000049B4BE7FA21890002F008FD85E7002408
:101CE000059F4346390000221868002308F03AF99E
:101CF000FA2040000AF026FA5B461B6801340837D8
:101D0000A342EEDC59E7C046E8E400100CE5001001
:101D10008421002080210020F82500209830002018
:101D2000B4310020B8310020BC310020B031002097
:101D30000C1005400C000540F0B5DE465746454600
:101D40004E46E0B5002510278DB0424804F084FFD0
:101D5000414B424C03930BAB9A46414B0593414B8D
:101D60009B46414B0793414B0293A3691F420FD1FE
:101D7000A3691F42FCD1FF2126680398314004F07B
:101D8000EFFF032D08DC53465E550135042D03D0CB
:101D90000A200AF0D7F9E8E753461B7852469846DE
:101DA00053465E789B7841460493D278059800921A
:101DB0009146320004F0D4FF5B460A21186808F00F
:101DC00027FB0500012801D00025E1E7079B1B68E0
:101DD000312B36DC02995A1C0693DB008C46180026
:101DE000089200226044CA540990404603F071F8FA
:101DF0000999069B4860991C88460898029AC30076
:101E0000D5543000D51803F064F8069B029A414679
:101E1000DE1C032394466860CD0053550498654446
:101E200003F057F8069B68600798029A0433036032
:101E300002239446F60093554846664403F049F859
:101E400070605B46002218680021002308F08AF8C1
:101E500000259DE750E500108CE500100080034050
:101E6000B0E500108421002080210020F82500200A
:101E7000F0B5CE46474680B5040089B0002847D06B
:101E8000244B254D0360456024480121E06003F0A8
:101E900087F8A06000283BD0402321490370280028
:101EA0000BF03EF903210E2001F0B0F803210F20C2
:101EB00001F0ACF8002201210E2001F0C1F803ADC1
:101EC000012100220F2001F0BBF82A00154B8027CA
:101ED00043CB43C21968002611601B7913711D237F
:101EE0006B44994610239846A0442B78E17863749C
:101EF0006068277402234246009601350BF038F9DA
:101F00004D45F2D1012009B0C0BCB946B046F0BD84
:101F10000020F8E78040083CC810002001040000C1
:101F2000801A060084E8001010B5002808D08368E5
:101F3000002B05D0C2680021013A581C03F05AF862
:101F400010BDC046F0B5040083B0002847D08368B8
:101F5000002B44D0060086230025802710369B01E5
:101F6000C178038232000223406800950BF000F92B
:101F7000E178022332006068278200950BF0F8F8C0
:101F80002378E178013B6374320002236068277490
:101F900000950BF0EDF88A239B01E1782382320053
:101FA0000223606800950BF0E3F8E1780223320029
:101FB0006068278200950BF0DBF8A378E178013B9D
:101FC0006374320002236068277400950BF0D0F828
:101FD000E368A268E178606800950BF0C9F803B087
:101FE000F0BDC046F0B54E464546DE465746E0B524
:101FF00089B0059012A805780826AC4613A8007889
:10200000764204006644B4461E780695083C002ECD
:102010004AD007380490DD48EF1F079060460090D3
:10202000A24241DC70B2002845DB01338F4230DD33
:10203000049882422DDA0725D01728408018C01056
:10204000844630002138C0B2D92803D8079D8000CB
:10205000285887460020002603900290804681463B
:102060008246834601906046069D6843059D401860
:10207000AC465D4660444570554685704D46C5701A
:1020800045460571019D86714571029DC571039D8F
:1020900005720831009809B2814202DD0021083240
:1020A00012B21E78002EBBD109B0F0BCBB46B246BE
:1020B000A946A046F0BD30001F25A843C02801D086
:1020C0000133EEE758782035B60128400643023345
:1020D000F6B2ABE73C3EAE48F600855D8019AB46F4
:1020E00045784679AA468578A946C578A8460579EF
:1020F00001958579C07902950390B4E7403EEAE7FF
:10210000153EE8E700200026039002906C30019015
:1021100080460020814682468346A4E70020039043
:10212000063002906B300190703880468146053051
:10213000824600200926834695E7002080460390CA
:1021400002900190303081461030824600200026F7
:10215000834688E7002018260390183002908046B6
:10216000814682460190002083467CE7012003904F
:1021700001300290063001900830804610308146D0
:10218000203082464030042683466CE740204026BB
:102190000390029062E70020804603900290019035
:1021A00017308146023882460630002683465AE7B9
:1021B0000620039003300290033801900020092686
:1021C00080468146824683464DE700200390783062
:1021D00002906438019002308046013881466330B5
:1021E00082460020142683463DE7002015260390F2
:1021F000783002906238019002388046814664301F
:102200008246002083462EE700200390783002901B
:10221000533880460190013081465230824600207A
:10222000262683461FE70020039079300290643809
:1022300015260190E1E70020039021300290403004
:10224000804601904038814603388246002021268E
:10225000834608E70020039002904530804681467F
:1022600001900B38824600203A268346FBE6002088
:1022700003904030029001300190013080460238D6
:1022800081460438824600203C268346EBE6002047
:102290000026039002905F3039E700200390FF3062
:1022A000FF2602905BE70020542603902430029022
:1022B00024300190363880461830814606388246F0
:1022C00000208346CFE600200390029081300190E9
:1022D000002603381CE70020039002907E30019016
:1022E0000026033014E7002003905A300290A530F6
:1022F00080460190C33881461E30824600203C262D
:102300008346B0E6002003904430029012300190E2
:102310000238804681462830824600205526834672
:10232000A1E60020039044300290113080460190D5
:10233000013081462630824600205626834692E6AA
:102340000020039002900130019000267C30DFE6EF
:1023500000200390393002900B30462680460190D1
:1023600081460C388246002083467CE6002003909C
:10237000383002900D3080460190013081460E3891
:1023800082460020462683466DE6C04698E8001047
:1023900000EC001000200390383002900D30804691
:1023A000814601900D3882460020452683465AE634
:1023B000002003903E3002900330019001308046AF
:1023C00002388146023882460020402683464AE68B
:1023D0000020542603907830029022380190013872
:1023E0008046353881460020824683463BE6002001
:1023F00003900290553001900130804602388146AA
:10240000343882460020782683462CE6002003904C
:102410007A30029025380190013080463638814666
:1024200000205526824683461DE600200390793021
:102430000290243855260190D2E7002003902230E4
:1024400002904030804601902226403835E7002037
:102450000390029055300190013080460238814649
:102460001C388246002018268346FCE50020039095
:10247000029055308046814601901B3882460020EC
:102480001A268346EFE50020039002900190413028
:1024900080463D3081463A388246002000268346F9
:1024A000E1E5002003900290453001900130804624
:1024B0003826023854E7002000260390029060304E
:1024C00025E6C046F0B5D6464F46464604002923C9
:1024D000C0B5002684B02371CC33FF3303ADE38055
:1024E000743B98467C4F2B807F3B216008002A007C
:1024F0002921FF3B00960AF03BFE2F802179022321
:102500002A00206800960AF033FE2E8021790223EB
:102510002A00206800960AF02BFE91236A46D372A7
:102520000B22903B217920686A44009399460AF077
:102530001FFE217901232A00206800960AF022FE5E
:102540002B782A00237280235B002B80217920685E
:10255000FE3B00960AF00CFEFF232B8021792A0017
:102560002068FD3B00960AF003FE80232B80217932
:102570002A0020687E3B00960AF0FAFD60239A4606
:102580006B465246DA724B46553A217920686A44C6
:1025900000930AF0EDFD217901232A0020680096BE
:1025A0000AF0F0FD52462B782A70122213436B700A
:1025B000217902232A00206800960AF0D9FD4423DD
:1025C0002B80243BAB7021792A0020681D3B0096AC
:1025D0000AF0CEFDFF235B422B80023321792A00D3
:1025E0002068FF3300960AF0C3FD43462B807F3BF3
:1025F00021792A002068FF3B00960AF0B9FD2F8060
:10260000217902232A00206800960AF0B1FD2E806D
:10261000217902232A00206800960AF0A9FD2F4B99
:102620002A002B8021790223206800960AF0A0FD61
:102630006B467D3FFF3F1F724B462179206802AAFF
:1026400000930AF095FD217901232A002068009665
:102650000AF098FD04222B782F7013436B702179B8
:1026600002232A00206800960AF082FD1C4B2A00F3
:102670002B8021790223206800960AF079FD8223BD
:10268000FF332B80803B21792A002068FF3B009696
:102690000AF06EFD43462B807F3B21792A0020689B
:1026A000FF3B00960AF064FD0E4B2A002B80217937
:1026B0000223206800960AF05BFD2F800223217917
:1026C0002A00206800960AF053FD08F021FC8323BD
:1026D00080469946823F12E0FF010000FF0600009D
:1026E000FF070000946B000008F012FC4346C01A7C
:1026F000E388984200D9EFE0012009F023FD6B4602
:102700004A465A7209222179012320686A440097B7
:102710000AF02EFD0123217920682A0000960AF094
:1027200031FD2B78002BDFD08423FF332B80823BBD
:1027300021792A002068FF3B00960AF019FD9223B8
:102740006A46D3720B2221792068913B00976A4434
:102750000AF00EFD217901232A00206800960AF074
:1027600011FD81232B8021792A0020687F3B009670
:102770000AF0FEFC594B2A002B80217902232068A5
:1027800000960AF0F5FC6B464A46DA720B22217974
:10279000012320686A4400970AF0EAFC21790123AA
:1027A0002A00206800960AF0EDFC4A462B782A7031
:1027B000042293436B70217902232A00206800963B
:1027C0000AF0D6FC464B2A002B80FE3B217920687C
:1027D000FF3B00960AF0CCFC80235B002B80217924
:1027E0002A002068FE3B00960AF0C2FCFF232B80E3
:1027F00021792A002068FD3B00960AF0B9FC80236D
:102800002B8021792A0020687E3B00960AF0B0FCDC
:10281000344B2A002B8021790223206800960AF08D
:10282000A7FC842398466B4642469A727A3A2179ED
:10283000012320686A4400970AF09AFC2179012359
:102840002A00206800960AF09DFC42460C272B784F
:102850002A70743A93436B70217902232A0020680E
:10286000FF3700960AF084FC2F80217902232A008A
:10287000206800960AF07CFC1B4B2A00E360FF23D3
:102880005B422B80023321792068FF3300960AF0E7
:102890006FFC71232B804633AB7021792A002068AE
:1028A000B43B00960AF064FC104B2A002B8021797F
:1028B0000223206800960AF05BFC2F8021792068B3
:1028C00002232A0000960AF053FC012004B0E0BC69
:1028D000BA46B146A846F0BD0020F7E7FF06000063
:1028E000FF0100000A040000400D030001E8FFFFA3
:1028F000F0B5CE464746C0230026040080B585B01B
:1029000003AD5B002B807F3B2A00FF3B0F0001796A
:10291000006800960AF02CFC364B2A002B80FE3B08
:1029200021792068FF3B00960AF022FC2E80217955
:1029300002232A00206800960AF01AFC9122237ACA
:102940002A706B70217902232A00206800960AF011
:102950000FFC80235B002B8021792A002068FE3B3E
:1029600000960AF005FCFF232B8021792A002068BD
:10297000FD3B00960AF0FCFB80232B802179206828
:102980007E3B2A0000960AF0F3FB236898462379E1
:102990009946002F21D07800C0190D21800001F048
:1029A000A5FE04232B7083B21B0A6B70A87003234F
:1029B0002A004946404600960AF0DAFB8023DB00F5
:1029C0002B802179206802232A0000960AF0D0FB90
:1029D00005B0C0BCB946B046F0BD80239B002B803B
:1029E000FF3B2A00494640460097FF3B0AF0C0FBE8
:1029F000EEE7C046FF010000F0B5CE46474680B581
:102A000085B0040008F084FA13239946123B0600AF
:102A10009846002703AD08E008F07AFAE388801BA7
:102A200098423FD8012009F08DFB6B464A469A72C6
:102A300043460A22217920686A44009301230AF060
:102A400097FB0123217920682A0000970AF09AFB5E
:102A50002B785B07E0D01E236A46D37243460B22D5
:102A6000217920686A44009301230AF081FB2179CF
:102A700002232A00206800970AF084FB0C232E888A
:102A8000FF332B800A3B2179206876BA2A00009711
:102A9000FF3BB6B20AF06CFB300005B0C0BCB946D3
:102AA000B046F0BD004EF7E7FFFF000010B5002173
:102AB000041C02F003FA00281BD10F49201C02F06D
:102AC00003FA002813D1201C0B4902F0ACF90B4982
:102AD00002F0BDF9094902F0A3F9094902F0A3F98E
:102AE000084902F0B4F902F01BFA80B210BD0248A6
:102AF000EAE70548FAE7C0460000344300007A449C
:102B000000409C4600247447350C0000F0B5DE46BA
:102B100057464E464546E0B5804687B0081C92466B
:102B200099468B4602F002FA040010980D0002F05C
:102B3000FDF904900591484602F0F8F902900391DE
:102B4000504602F0F3F9514E0090019122002B0003
:102B50004146300004F004F90021584602F0AEF975
:102B60000027002810D15846494902F0ADF9002845
:102B700000D088E05846464902F055F9454902F030
:102B800066F902F0CDF9C7B20021504602F096F97D
:102B9000002500280FD150463D4902F095F9002844
:102BA0006FD150463A4902F03EF93A4902F04FF9E6
:102BB00002F0B6F9C5B20021484602F07FF90024C0
:102BC00000280FD14846324902F07EF9002856D13C
:102BD00048462F4902F027F92E4902F038F902F051
:102BE0009FF9C4B20021109802F068F9002600286D
:102BF0000FD12749109802F067F900283DD11098AD
:102C0000234902F010F9234902F021F902F088F972
:102C1000C6B22021204A93691942FCD1A023202169
:102C200013601D4A93691942FCD14146FF230B40B2
:102C300020211360184A93691942FCD120211760A2
:102C4000154A93691942FCD120211560124A9369F3
:102C50001942FCD1202114600F4A93691942FCD11A
:102C6000166008220C498B691A42FCD107B0F0BCEF
:102C7000BB46B246A946A046F0BD0548C0E7044899
:102C8000A7E703488EE7024875E7C04610E6001044
:102C90000000344300007F4300800340F0B516007D
:102CA0000C00951CCA360378C26859000F19BA4245
:102CB00005D92A788368DA550378C2685900C9189B
:102CC0000919914204D26A7883685A540378C26819
:102CD00099000F19974205D2AA788368DA550378CC
:102CE000C2689900C9180919914204D2EA78836828
:102CF0005A540378C2685900C91849000919914209
:102D000004D22A7983685A540378C268D900CB1A4E
:102D10001B19934202D269798268D1540835013473
:102D2000B542C0D1F0BDC046F8B51E4B05000C0041
:102D3000994236D8FA212000890001F0D7FCC82634
:102D400082B27243184F0A21D2192800FFF7A6FF5A
:102D50006421200001F0CAFC0A2180B201F0C6FC07
:102D60008AB272432421D2192800FFF797FF0A2163
:102D7000200001F0BBFC0A2180B201F0B7FC8AB24E
:102D800072433E21D2192800FFF788FF0A21200054
:102D900001F0ACFC89B24E4328005821F219FFF72C
:102DA0007DFFF8BD0F27000028EF001010B50C00C4
:102DB0002300233BDBB21100232B0AD80D4A9B00D2
:102DC000D3589F46C823303C63430B4A9A18FFF7F9
:102DD00065FF10BD094AFAE7094AF8E7094AF6E72C
:102DE000094AF4E7094AF2E7094AF0E7094AEEE737
:102DF000094AECE738FD001028EF001088F80010B1
:102E000050F9001018FA0010E0FA001070FC0010E1
:102E1000A8FB0010C0F70010F8F60010F0B506008F
:102E200083B008000F0014000AF036FD3378C500A7
:102E30005D1BE200EC0F6419641021B27478B06875
:102E4000009301943B00FFF7CDF803B0F0BDC046FE
:102E5000F0B5C646431E00B50A3314D80723040054
:102E60001A000834224023426CD01300093BA342CD
:102E700009D31030841A07F0E9FF374A2700156894
:102E8000002D28D10EE007F0E1FF334A1368002B34
:102E900006D0002509F04AF9280080BCB846F0BDEC
:102EA0000027002407202D4D2B002900284245D162
:102EB00000202B4E706031602A4EB44607266544D0
:102EC000B5431560284AEB1A1360284A68602860E9
:102ED00013604B600D60002FDBDD244F3E68A6427F
:102EE000D7D31F48036804E01A68002A04D01800EA
:102EF00013005968A142F7D3AB42CAD01D001A682B
:102F00000835904602600A1B102A05D919194A6033
:102F100042460A6001602100134A761A10683E603A
:102F2000864200D21660802212060A435A600022AE
:102F30001A600F4A136801331360ABE7EB1D83433C
:102F40001900B5E707F082FF034A27001568002D36
:102F5000A8D0002CC1DA9CE7A8270020D03100209F
:102F60009C320220F8FF01006C3202205C32022009
:102F70007832022070B5002804D008384368040075
:102F8000002B00DB70BD0268002AFBD15B005B08F0
:102F90004360050007F05AFF184A616813685B1820
:102FA0001360174B1A001B689C42FBD85068161818
:102FB000B4420DD0601883421AD02360AA4200D0D8
:102FC0001560104A13680133136009F0AFF8D9E7B0
:102FD0000918501851608342F3D10B48150000685E
:102FE0009842EED058681B68411869602B60E5E78D
:102FF000054800688342F5D1DFE7C0465C32022015
:103000009C3202207C320220A8270020094A83003B
:103010009A1810B514684022544080322240064C61
:10302000C000A44663441A60044B9C46604441605F
:1030300010BDC04604C0014004D001400040014022
:10304000074B8000C3181B68C90092000A435A400E
:103050000C231340034A9446604403607047C04603
:1030600004C0014004D001408000002905D0064B77
:103070009C464023604403607047044B9C464023B9
:1030800060440360F8E7C04604E0014004F00140FA
:103090000123D0228340120693629361094A830080
:1030A0009A1811684022514080320A400649C000F7
:1030B0008C4663441A60054B9C460523604443607C
:1030C0007047C04604C0014004D0014000400140A8
:1030D0008023DB051868000F7047C0460FB400B5A9
:1030E000084883B003F0B8FD049B002B07D005A966
:1030F0001800019103F0ECFB034803F0ADFD012043
:1031000003F0FEFB50E60010C0E1001010B50148CE
:10311000FFF7E4FF60E6001070B5EFF3108C72B6B5
:103120000D4D2B68002BFCD0BFF35F8F0724CB081D
:10313000C618C05C01230C40A3401C00044003429D
:1031400007D118433070BFF35F8F2C608CF3108869
:1031500070BD1000FFF7C2FF2C0100D0F8B5474644
:10316000CE46884680B5EFF3108C72B61C4D2C68A5
:10317000002CFCD0BFF35F8F9A4222D80721012692
:10318000894602E00132934218D34D46370015407C
:10319000AF40D4080119045D2742F3D110003C432D
:1031A0000C70BFF35F8F00220D4B1A608CF31088F8
:1031B00000280EDBC0BCB946B046F8BD0120404235
:1031C000EFE7BFF35F8F00232B608CF310880120A3
:1031D00040424346002BEDD00898FFF77FFFC046E2
:1031E0002C0100D0044A1078431CDBB2172B00D905
:1031F000102313707047C0460410002010B5034B15
:1032000001001800024AFFF787FF10BD18210020B7
:1032100070E6001010B5064B064C82B0010000931A
:1032200018221F232000FFF799FF02B010BDC046EF
:1032300090E60010182100200021044B044ABFF33F
:103240005F8F02C39342FAD17047C046000100D09D
:10325000800100D0054B064A1360064A1360536094
:103260009360D36013615361936170478080808065
:1032700000E400E004E400E01F2318401E3B83400C
:10328000002905D0C021044A4900535013607047FB
:10329000802201498B50FAE700E100E001228240E0
:1032A000034B1B6813405A1E9341D8B27047C04667
:1032B00000E100E001238340014A13607047C046EB
:1032C00000E200E0064B10309B688000C358054ABE
:1032D00000209B1A2F229A424041C0B27047C0463C
:1032E00000ED00E00810002070B50D00EFF310862F
:1032F00072B60F4A1368002BFCD0BFF35F8F0D4BE3
:1033000010309B6884001B590B4A934203D09D42A6
:1033100001D001F0D1F8074B9B681D51BFF35F8FBF
:10332000BFF35F8F0022024B1A6086F3108870BDD6
:10333000240100D000ED00E0CD010010F0B55746AB
:103340004E46DE464546E0B585B0060000911700C2
:10335000EFF3108B72B66A4A1368002BFCD0BFF3F0
:103360005F8F0025674B5D579A46002D00DAA9E074
:103370006B00654C01935B199B009846A146C144C4
:103380004B4652469B7910361370604BB6009B68D3
:1033900099590B1B2F2B33D95D4B994200D0ACE0D0
:1033A000019B42469C465B4B6544AD0063535A4BC0
:1033B0000232A218043B9B1A1B05584A5B0D651983
:1033C00013436B80564B0121AB80FF23AB71009BF5
:1033D000EF71AB604B460B4319004C4B9B68995106
:1033E000BFF35F8FBFF35F8F0022454B1A608BF3F3
:1033F000108805B0F0BCBB46B246A946A046F0BD59
:1034000001200A008243D3798C46BB4231D845461D
:10341000130044491B1B5B415943090D3D4B63534A
:103420003D4B02356519043B5B1B1B053B4D5B0D9A
:103430002B43AA464D466B800425AC465546E044D6
:10344000131F44441B1B1B055B0D1D434B46997109
:1034500000999D8099604946DF71334B01431360A9
:10346000BBE75800C01880002018C179B9422FD995
:1034700002000623D356002BF3DA02932B4B61464E
:103480000393131D9A4604235B429C46E144504635
:103490004B461B1A1B055B0D9C46204B95719846AD
:1034A0006346404603439380019B5A199200039B55
:1034B000A418A380029B1C4AA371009B2260E771A1
:1034C000A3608AE700F0F8FF002553465D574FE7F9
:1034D000908802934005131D9A46031561469C4649
:1034E0004046D444634604302018181AE0230005EF
:1034F000400D1B0218430390C5E700F0DDFF4FE7C6
:10350000240100D0E73202200810002000ED00E086
:10351000CD01001000A1FFFF3810002000E0FFFFE8
:1035200001BDFFFFAAAA00000148804701BD0000BD
:1035300010B58308040003202040FF24054AC00082
:103540009446844081409B0063441A68A2430A4326
:103550001A6010BD00E400E070B501240443EFF3ED
:103560000581EFF3108C72B6214A1368002BFCD052
:10357000BFF35F8F1F4B05001F4AED1A6D416A4371
:10358000120D1E4D8900AE6852B27658A6421CD06C
:103590000621595691421CD012215956914222D0EF
:1035A0001E215956914220D02A2159560324914276
:1035B00010D0134B19781A708171BFF35F8F0022FE
:1035C0000B4B1A608CF3108870BDAB680D4C5C50CF
:1035D000EFE700246100091989005B18FF21997148
:1035E00009499980E5E70124F4E70224F2E7C0469F
:1035F000240100D008100020AAAA000000ED00E07D
:10360000E7320220CD01001001BDFFFF10B5084BCD
:10361000084C82B001000093002205232000FFF730
:103620009DFD002801DB1F23181A02B010BDC04603
:10363000ACE60010EC320220024B9C46614489004B
:103640000160704740000034F8B5124C124DAC4296
:1036500012D20126002776422368002B0DD0FFF7F7
:10366000C1FD01002000FFF7E7FF66602772BFF38E
:103670005F8F0C34AC42EFD3F8BDFFF7B3FD010010
:103680002000FFF7D9FF6660BFF35F8F0834AC42BC
:10369000E2D3F1E7301600204016002010B50400F8
:1036A000FFF7A0FD01002000FFF7C6FF01235B42EA
:1036B0006360BFF35F8F10BD10B504000120FFF7FA
:1036C000A9FD034BC3189B002360BFF35F8F10BDA0
:1036D00040000034034B9C46614489000160BFF305
:1036E0005F8F704740000034F0B5DE4657464E46C7
:1036F0004546E0B587B0EFF30583032201251A4064
:10370000954091008846A946B34B03925C58B34B51
:103710001D60B34B04934B46B24843630823E55EF8
:10372000002D37DAA3881BB2002B00DBADE0A379B4
:10373000002B00D0EEE00823E05E002820DB4300F1
:1037400062691B18DB00D3189E68DD68731C00D10A
:1037500011E1A44801004144826A0B69B71A9B1A1F
:103760009F4215D30123026A039883401A420FD067
:103770009C4800F0C5FB8D4202DCCCD18642CAD900
:1037800040BF07B0F0BCBB46B246A946A046F0BD5C
:103790000E61EDE762696B0092465B19DB009A44AB
:1037A00053469E68DF6800F0ABFB8F42BADC00D165
:1037B00003E1002F00DAE8E05246534652691B69E4
:1037C0009346049A934200D1D9E052460821605EA4
:1037D000528800045946104398470090019100997F
:1037E000019A0B001000134300D1CEE013000A0031
:1037F000B61A9F41002806DB7A4800F081FB009E44
:10380000019F36184F4153469E60DF6000229A5E4A
:10381000002A00DA86E7530099186069C900411848
:1038200002938B68C9689B46B94200DD7AE702D1F2
:10383000B34200D976E708239C46A4440595654623
:103840002281A446029B2C0006E053009918C9006F
:1038500041188D68C968AB469B18DB00C318B94294
:1038600006DC00D1B3E01C000023E25E002AECDAA3
:10387000230064469C4653461A806346059D1D807E
:10388000A3881BB2002B00DA51E72269EFF3108105
:1038900072B61368002BFCD0BFF35F8F0123A7889B
:1038A0005B42A3803FB22369BFF35F8F00221A609F
:1038B00081F31088002F00DA39E723000833220053
:1038C0009A4666697B00DB19DB00F318996850465D
:1038D0008C460824115FDD68002910DB029306E0A6
:1038E000AB4244D00023E15E2000002906DB4C00FF
:1038F0006418E4003419E368AB42F1DD029B0780F1
:1039000000201F5E1980002FDCDA1400A379002B41
:1039100000D110E70023A37126000823E15E0836DA
:103920004B1C00D12CE70800A246656902E03E006E
:103930004B1C1AD04B005B18DB00EF180A008C46BA
:10394000E95E7B881BB2002BF1DA01235B42DC17B6
:10395000BB60FC60824205D0534631801B893B80AE
:1039600053461A8160464B1CE4D15446E5E6A368F1
:103970006345B7D9C2E76B1C00D0EAE6F8E65B46C0
:1039800058461B69984700281BD153461B8822695B
:103990002381EFF3108372B611680029FCD0BFF3C6
:1039A0005F8F514662880A8022696580BFF35F8F0E
:1039B0000021116083F31088B4E6864200D8F8E64F
:1039C000B0E65B461A685B680092019307E7B3456F
:1039D00000D848E74CE7C046882700203C700540E7
:1039E000E936001000400540074810B50268EFF3C3
:1039F000108172B61368002BFCD0BFF35F8F05F007
:103A000015FF0020002110BDAC31002070B52E4CF8
:103A10002569002D04D00A212C48FFF70DFE70BD4A
:103A20002B4E0321300000F061FAE660FFF7DAFB6D
:103A3000284B03229C46D02322701B061B680121C1
:103A40006370254B6044A3600F2380002061022037
:103A5000638063694942A180198002311986473128
:103A60001D83585218315A5275325C3999521832A6
:103A7000013199521832013199521832013199525B
:103A8000083518329D5202311832995218320131DC
:103A90009952183201319952183201319952183223
:103AA000013199521832013199520C4B0C49DC60AA
:103AB00001303562FFF718FC01210320FFF7DCFB22
:103AC000084B1D60A7E7C04650100020AC31002015
:103AD0000040054040000034FFFF10008827002010
:103AE000E93600103860054000487047501000204B
:103AF000F8B51F0008AB1B7804001600002B08D196
:103B000000F006FA32003B00121A8B41002B00DA5B
:103B100052E02269EFF3108072B61368002BFCD0DC
:103B2000BFF35F8F0223E15E63694A005218D2003F
:103B30009B182269002936DB1D886580BFF35F8FE3
:103B40000025156080F31088069A9E60DF601A6178
:103B5000079A5A615A8801325204520C101C002AEA
:103B60001FD082B25880080410432669EFF31087F3
:103B700072B63268002AFCD0BFF35F8FA2881A8029
:103B8000A1802369BFF35F8F00221A6087F310883A
:103B90000A4923788C4601329A40E36863441A60EC
:103BA000F8BD0120DDE7BFF35F8F0023136080F3D2
:103BB000108801204042F3E70020F1E73C2000009C
:103BC00070B501000469EFF3108C72B6206800280C
:103BD000FCD0BFF35F8F02200D5E4C696800401976
:103BE000C00024180869002D36DB26884E80BFF3FC
:103BF0005F8F002606608CF31088E360638804986A
:103C0000013320615B0405985B0CA26060611A1CA3
:103C1000002B1FD093B22804628018430A69EFF387
:103C2000108C72B61368002BFCD0BFF35F8F8B88AB
:103C300023808D800B69BFF35F8F00221A608CF3A5
:103C400010880B7801329A40CB6808498C4663444F
:103C50001A6070BD0122DDE7BFF35F8F00230360B0
:103C60008CF3108801204042F3E7C0463C2000005E
:103C700010B543890A1493421ADD53009B18426918
:103C8000DB00D3180469EFF3108C72B62268002AA7
:103C9000FCD0BFF35F8F5A88090494B2090C8A42A2
:103CA00008D00369BFF35F8F00221A608CF310887D
:103CB000002010BD8022120214435C80012302699F
:103CC0008371BFF35F8F002111608CF3108804496A
:103CD00002788C469340C268012062441360E8E792
:103CE0003C20000040787047F0B5CE46474680B58E
:103CF00083B0040000F00CF9FA2206000F00200047
:103D000000230021920001F06BF880197941040032
:103D10000D1E02DA01242D4D644296267642F717D5
:103D200036196F41AF4215D812D000F0F1F83200C9
:103D30003B00121A8B41002B18DC002B43D02000D3
:103D4000290000F023F903B0C0BCB946B046F0BD6D
:103D5000A642EAD90022002316001F0000F0D8F87E
:103D600032003B00121A8B41002BE6DD00F0D0F848
:103D700032003B00121A8B41002B0ADB0023019317
:103D8000134B3200009313483B00FFF719FF01303B
:103D9000D5D0114BB1469846104E736A9F4204D855
:103DA000B26A4A45CBD29F42C9D143461A68EFF363
:103DB000108172B61368002BFCD0BFF35F8F4046B2
:103DC00005F002FDE9E7002AB9D0CFE7FFFFFF7F4A
:103DD000E939001050100020AC31002000400540AF
:103DE000F0B557464E46DE464546E0B506000F00A4
:103DF00085B0EFF3058399468B46002B12D03849E6
:103E000000204B6ABB4206D38A6ADB1B591E8B41DA
:103E1000B2424041184305B0F0BCBB46B246A94689
:103E2000A046F0BD2F4B9A46DB68984653461B7858
:103E30004046039300F064F84246039B04000433B9
:103E40009B009B580D001B1A39003000001BA94134
:103E5000894510DC0DD020BF214A0020536A5B4504
:103E6000D9D3926ADB1B591E8B41B24240411843A1
:103E7000D1E78342EFD900F04BF832003B00121A31
:103E80008B41002B1ADB00230193174B3200009368
:103E900050463B00FFF794FE011E0FDD104B5A6A9F
:103EA0005A451BD39B6AB34216D35046FFF7E0FE38
:103EB0000B4A0020536A5B45ADD3D2E7084A002085
:103EC000536A5B45A7D30020926ADB1BB242404194
:103ED0005A1E934118439EE75A45E6D120BFE4E7B6
:103EE0000040054050100020E939001010B5024A8A
:103EF0000248FFF711F910BDC8E600101C21002090
:103F00000300416A0A00986A596A8A42FAD17047E6
:103F1000034B596A0A00986A596A9142FAD170476C
:103F20000040054070B504000D00174A536A19009F
:103F3000966A536A8B42FAD13000190024184D4119
:103F4000AB4216D813D0104B2A005B6A9D4203D9AE
:103F50000D494B6A9342FCD3934207D10A4A02E0CF
:103F6000516A994202D1916AA142F9D370BDA64229
:103F7000E9D9054B5B6A1C005A1CEFD001220124D1
:103F80006442E5175242E3E700400540064A536A9F
:103F90009942FCD807D1044B02E05A6A914202D1FF
:103FA0009A6A9042F9D8704700400540F8B504007D
:103FB00006200D0000F078F9002844D0374B38492E
:103FC000E3185A1E93418022120494465B429B0DD3
:103FD000344A9B0563441360334A136018000A682F
:103FE0009043FBD12D4B314AE31859424B4180217C
:103FF0005B0049000620995200F056F92900C000E4
:1040000000F074FB0130C3091ED140270122626217
:10401000A362266BF30722D4E36A254B0620E5183A
:1040200000232B60266300F03FF93900800000F088
:104030005DFB7023E26A5A400E3313402B601D4B28
:1040400023630323A364F8BD1B4A93421ED90023B4
:104050001A4A1B4F6262A362266BF307DCD5194B29
:10406000144AE3181A60656AA36A0620AD01ED18C8
:1040700000F01AF9144900F039FBAD0201002800E4
:1040800000F034FB0021FFF74DFFC5E74006800E2E
:104090009F011A003F180300B9E7C0460080FCBF2B
:1040A00008C0004000E0004000F00040CC3100209B
:1040B0002C10000001030000FEFF0000FFFF0000C5
:1040C000C0FF3F00303000004E0E0000F8B5DE4665
:1040D0004E4657464546E0B58B4605000A991800FE
:1040E000160000F003FB0A9B6C001F02324B6419A0
:1040F0009C46A4006444636881469F4200D967607F
:104100002B1FDBB29846012B30D9C02380229B01A4
:10411000E31812011A60294BAD0059599A4600293B
:104120001BD17301E026226853401E408023424683
:104130005B01E3181E60012A30D9802380229B0195
:10414000E31812011A6053464A4667605A51F0BCA0
:10415000BB46B246A946A046F8BD586900F0C6FA6B
:10416000013043001B18033BFDD2DAE75B46012B0D
:10417000CBD1C02303229B01E3181A60023AA36843
:104180001A42FCD07301E0262268AD0053401E4065
:1041900080230A4A5B019246E3181E605A46216852
:1041A000514003220A401A6001225B469A40A368EC
:1041B0001A42FCD0C1E7C046008000402021002008
:1041C000F0B546464F46D646C0B51F00344B4400B6
:1041D0009C462418A4006444636888461600FF2B9C
:1041E00002D880235B006360031FDBB29A46012B79
:1041F00030D9C02380229B01E31812011A60294B99
:1042000085005959994600291BD17301E02622687F
:1042100053401E40802352465B01E3181E60012A72
:1042200030D9802380229B01E31812011A60802379
:104230005B0063604B465F51E0BCBA46B146A8469E
:10424000F0BD586900F052FA013043001B18033BDF
:10425000FDD2DAE74346012BCBD1C02303229B01D9
:10426000E3181A60023AA3681A42FCD07301E026F0
:104270002268850053401E4080230A4A5B01914614
:10428000E3181E6042462168514003220A401A602A
:10429000012342469340A2681342FCD0C1E7C046C6
:1042A0000080004020210020014B8000C058704752
:1042B00020210020F8B5040021481E0017000D0041
:1042C00000F014FA0100380000F010FA069B3604E2
:1042D0001B031E432368002B20DB1A4B1A49E318EB
:1042E0005A1E93418022920194465B421B0B174A4F
:1042F0001B0363441360164A13601F000A68974348
:10430000FBD1144B2560E2182123A06013602368C1
:10431000002BFCDA0823E6601360F8BD3F23226817
:104320001340AB42D9D1A3681B051B0D8342D4D1E6
:10433000EE22E368D2021340B342CED1EDE7C0468D
:10434000001BB7000040FDBF08C0004000E0004077
:1043500000F000400430000010B580241C4BE40540
:104360001C6000281AD001231A4C18431A4BDC6138
:104370001A4C44401C62596298628021144BC90552
:104380001960174817490860E021C9041960002A1C
:1043900007D18022144B12061A6010BD0E4BD86153
:1043A000EBE753019B1A9B009A18802312015B04D0
:1043B0009A4209D213000D490B60074B5A608022C4
:1043C000094BD2051A60E8E7094B1A00F3E7C0462B
:1043D00000B00540D3C007B0008005402D3FF84F26
:1043E000FCFF01000820014000A00540B825002086
:1043F000FFFFFF008023024A9B000B43D3627047FC
:1044000000800540002310B50100988A1B8B984757
:1044100010BDC046162310B50100188802331B8852
:10442000984710BDF8B54746CE4680B50F1E18D048
:1044300014239946043304000025012698464B4670
:104440001888434621681B88984701C4431E984139
:1044500001350640AF42F2D13000C0BCB946B0468B
:10446000F8BD0126F8E7C046002370B504000D0032
:10447000988A05491B8B984703000020002C01DB1C
:104480000130A0402900984755420000AA23064A5F
:104490001B0113608D235B00D3600449044B19603A
:1044A0005368002BFCDA70470040024000B0FA006D
:1044B000006002407047C04610B50148FEF70EFE8E
:1044C000ECE6001070B5074D074EB54209D2002446
:1044D000013E761BB60808CD984723000134B3424D
:1044E000F9D170BD70DC0010ACDC001070B5074D68
:1044F000074EB54209D20024013E761BB60808CD0E
:10450000984723000134B342F9D170BDA4DC0010F8
:10451000ACDC0010054B064A06491A60064A074BF8
:104520001A6010000B689843FBD1704700E0004010
:10453000BFCDFBFE08C00040FE7F3C0000F0004005
:10454000044BDB6C002B03D18022034BD2021A6098
:104550007047C046000011504C201150044A054BD2
:104560001A60054A1368DB018033FBD17047C046EF
:10457000FFFFFF0100F0004008C000404022034B55
:104580009A675A671A67DA667047C04600F00140BA
:1045900010B5FEF751FE10BD70B5044D044CA9686E
:1045A000C022200000F02CFDAC6070BD00ED00E0EA
:1045B00000000020002310B5294C82B0A367FFF74C
:1045C00065FF0122274B1A60636C012BFCD103228B
:1045D000254B1A60224A936B012BFCD101330093C7
:1045E0000121224A22480433FFF764FE05230121FA
:1045F0000093204A2048FFF75DFE0022022104209C
:104600001E4BFFF7DDFD0022012105201C4BFFF7AB
:10461000D7FD0022002107201A4BFFF7D1FD002211
:1046200000210820174BFFF7CBFD8023DB00009310
:10463000002200210920134BFFF748FD0022104BF8
:1046400000210620FFF7BCFD0420FFF72DFE0E49D8
:1046500000F04CF801000020FFF7CCFE02B010BDC6
:10466000008000403CB0004030B00040002F68594E
:1046700000800240008C864700C00240001BB7004B
:1046800040597307006CDC0240420F0001480421CE
:10469000014B18477010002025440010124A936FF8
:1046A0009B0815D29066D166002905D0FFE7FFE789
:1046B000FFE7516F106F704704B580210906C217DC
:1046C0005140002800D0C84309F082FA002104BDFF
:1046D000F0B5146E556E576F166FFFF7E3FF146653
:1046E000556657671667F0BD000000D0114A936FFA
:1046F0009B0813D210665166002905D0FFE7FFE73B
:10470000FFE7516F106F704704B5002801D00020FB
:10471000C04309F05DFA002104BDC046F0B5146E37
:10472000556E576F166FFFF7E5FF146655665767AE
:104730001667F0BD000000D094464A4A926F920876
:10474000624601D228E0C046F0B5464E346E756E22
:10475000776F366F00F020F89446424A146655662B
:10476000576716676246F0BD94463E4A926F9208BC
:10477000624601D254E0C046F0B53A4E346E756ED2
:10478000776F366F00F04CF89446364A14665566DB
:10479000576716676246F0BD002B24DB11D0002955
:1047A0003EDA00B5C943404200D1013100F038F88B
:1047B000C943404200D10131DB43524200D10133B1
:1047C00000BD002AEBD1002801D1002905D000202E
:1047D000C90FC90701D1C043410800B509F0F0F97C
:1047E0000022002300BD00B500290ADBDB43524252
:1047F00000D1013300F014F8C943404200D1013127
:1048000000BDC943404200D10131DB43524200D1D7
:10481000013300F005F8DB43524200D1013300BD03
:10482000002923D1002B18D1002A0CD0BC460D4FF3
:1048300038667A6600210023FFE7FFE7FFE77A6F1B
:10484000386F67467047002801D00748010000B55F
:1048500009F0B6F90022002300BD02000B00002081
:1048600000217047000000D0FFFFFFFF002B00D0A9
:10487000BFE0130C28D1002AE7D080B4114F39666D
:104880007A66FFE7FFE730B4040C7B6F396F1B04D7
:1048900023433B667A66FFE7FFE7FFE7C04684B243
:1048A0007B6F3D6F1B0423433B667A66FFE7FFE7A0
:1048B000C04600232C042D0C7A6F386F0019694113
:1048C000B0BC7047000000D0F0B594460025140E2F
:1048D00001D112020835140F01D112010435940FD1
:1048E00001D192000235D40F01D152000135D40B11
:1048F0000134254F7C66254C3C660E0C93B2FFE7D5
:10490000FFE7FFE73C6F6643360C7703BE46734311
:10491000DF0B5B04C01AB941130C7343DB18C91ACF
:10492000CE086643360CB64493B273431F0F1B0187
:10493000C01AB941130C73431F0B1B05C01AB941B0
:10494000860D8F023E436643360C092D24DB520A46
:104950007243801A7703460A6643360C16235B1BA4
:10496000DE40DF40BF1964466643821B7046043553
:1049700006330100D940A840C01900D30131A2423A
:1049800006D20023F0BD0000000000D0FFFFFFFFB3
:10499000121B0130F3D3F1E709277F1BFE40644669
:1049A000A2B27243801A00D20139220C7243130C56
:1049B0001204821A99410B00704604351337010026
:1049C000F940A840801900D30131002B02D1A24246
:1049D0000AD2F0BD013000D30131121BFAD2013BE3
:1049E000F8D1A24200D2F0BD013000D30131121B38
:1049F000F7E7F0B51C0C00D080E00CB400251C0AD1
:104A000004D11B02160E3343120208351C0B04D1CD
:104A10001B01160F3343120104359C0B04D19B007C
:104A2000960F334392000235DC0B02D192185B41A2
:104A300001351C00971864410134464F7C66464C92
:104A40003C660E0CFFE7FFE7FFE7C0463C6F66439E
:104A5000360C7703BE4697B27743C01B00D20139AC
:104A6000C01B00D201399FB27743C91BC91B170C69
:104A700077437E04FF0B801BB941CE086643360C9A
:104A80000C2D33DBB644120B1F053A431B0B97B2B8
:104A90007743C01B00D201399FB27743C91B170C63
:104AA00077433E043F0C801BB941860D8F023E4385
:104AB000664329277F1BFE400C3D7746AF40BF1958
:104AC00030BCA2B2ABB272437343801A9941220C3C
:104AD0007243130C1204801A994102000B00013733
:104AE000001BA941F9D2781E0021F0BD0C277F1BC5
:104AF000FE4077467F0BAF40FF19E0E700245D1CC6
:104B000007D0144F7D663966FFE7FFE7FFE7FFE751
:104B10003C6F95B29EB265436643401BB141150C94
:104B20001E0C6543664336042F0C3E432D04401B88
:104B3000B141994204D202000B0020000021F0BDD7
:104B400001D19042F7D3801A994101349942F2D3AE
:104B5000F6E70000000000D0FFFFFFFF48404140A3
:104B6000484018B4134B5B68019308BD18B4114B4F
:104B70001B68019308BD94460F4A926F920805D2B4
:104B8000624618B40B4BDB68019308BD0A4AF0B5C6
:104B9000146E556E576F166F6246FFF7F2FF064AA6
:104BA0001466556657671667F0BD18B4014B9B68CD
:104BB000019308BDC8170020000000D0FFB5504089
:104BC0004240504059404B40594000E0FFB5154F1E
:104BD0004C00640D03D0BC4204D10C0314D8002057
:104BE000090D09055C00640D03D0BC4204D11C030F
:104BF0000AD800221B0D1B0501264B4009D44B404F
:104C000003D58B4200D18242FFBD9942FCD1904234
:104C1000FFBD0B43DB1803431343F5D0C9434918C9
:104C2000FFBD0000FF07000000B5FFF7CFFF804188
:104C300000BDC04600B5FFF7C9FF01D9002000BD87
:104C4000012000BD00B5FFF7B9FF01D9002000BD6C
:104C5000012000BD00B5FFF7B1FF804100BD01207C
:104C600040054A00121804D85A00121801D8002032
:104C700070470120704700000021002805D17047CF
:104C8000C1174840401AFAD0C90713B5064B1B6834
:104C900098470CBC441CA2401005120B0349091B89
:104CA00009051943114310BD9C3000201F0400006A
:104CB00010B54C00620D8023D218DB00D21A5B05C0
:104CC0007E2A10DD9E3A13DACC17090349081943EE
:104CD0005242D140640001341532202A05DAD04016
:104CE0000843604310BD002010BD0846604310BD5E
:104CF000C80FC018013810BD18B4024B5B6A01938D
:104D000008BD0000C817002010B50148FEF7E6F9FD
:104D1000F8E60010132370B51D78012D19D014DDAD
:104D20001D48FFF777FB06001C48FFF773FB1C4C80
:104D300080223100200000F063F9022D06D01948CE
:104D4000FFF760FB184B186070BD154C174BA36440
:104D5000F5E7174B124C23606360A360E3602361A7
:104D60006361A361E36123626362A362E36223631D
:104D70006363A363E36323646364A364E3642365FD
:104D80006365A365E36523666366A366E3662367DD
:104D90006367A367E367D9E7534400005346000005
:104DA000C81700204C3300009C300020B54D001087
:104DB000094D001007B5604601880A0A0230DF2A53
:104DC000FAD1C9B2820804D3028840880004104393
:104DD00000E00068014A5050039007BDC81700204A
:104DE00051434343C9188C46110C83B24B4310B452
:104DF000040C614392B280B2504362431C041B0C0A
:104E0000001910BC59411304120CC01851416144DF
:104E1000704700004840414048400E4B5B681847CF
:104E20000C4B1B6818470C4A936F9B0802D2094B26
:104E3000DB681847F0B5146E556E576F166FFFF7A5
:104E4000F6FF054A1466556657671667F0BD014BB5
:104E50009B681847A0300020000000D007B54840EC
:104E60004140484001E0C04607B54200120E03D061
:104E7000FF2A03D1420218D8C00DC0054A00120E05
:104E800003D0FF2A03D14A020FD8C90DC905012258
:104E9000414005D4414001D5814207BD884207BD4C
:104EA0000143491801D0C043001807BD00B5FFF702
:104EB000DBFF01D0002000BD012000BD00B5FFF7E1
:104EC000D3FF804100BDC04600B5FFF7C7FF80415A
:104ED00000BD491A002807D108467047C10FC9070D
:104EE00000D54042002817D0F44603B40B4B1B6892
:104EF000984706BC81409E384042803107D20B065D
:104F000007D04900490AC0051043084360470130F3
:104F1000F8E7490A8902F5E7704700009C30002055
:104F2000014B5B6A18470000A0300020014BDB6F8B
:104F300018470000A030002010B50148FEF7CEF859
:104F400090E40010132310B510481C78FFF762FAA4
:104F50000100012C0AD003DD80220D4800F050F83A
:104F60000C48FFF74FFA0C4B186010BD084C542248
:104F7000200000F045F82200084980322368002B09
:104F800000D1216004349442F8D1E9E7534600008F
:104F9000A03000204C3300009C300020394F00101E
:104FA000F8B506000C000C4F380008F059FE21003F
:104FB000300008F0F1F80500380008F0F9FD7443FE
:104FC000002D05D0054B2C199C4201D82800F8BDB6
:104FD0000348FEF783F8C046301600200000042086
:104FE00010E7001001480421014B184780100020F1
:104FF00025440010014B1B6818470000801000205A
:10500000014B5B6818470000801000207047C046C5
:10501000F8B55746DE464E464546E0B599460A9BEA
:1050200007009A460D9B884693460B9C9B073BD1F5
:105030000C9B9C423DD21E1B0B9415000C005E4441
:105040002A004B46013521002020B847B542F7D150
:10505000A0460B9C002C20D0454636195346321BE7
:10506000013C185D29004B46B847002CF6D12B00B7
:10507000350098460D9B9B070FD55B46EC1A0C9BA1
:10508000A3420AD9464698462A004B4631002020C2
:105090000134B84701354445F6D32800F0BCBB467F
:1050A000B246A946A046F8BD16001500002CD3D183
:1050B000E0E716001500002CCED1EEE7F0B545462E
:1050C000DE4657464E46E0B585B09C4610AB1B7891
:1050D000149F934698460F9C129E139DBB074CD479
:1050E000002D42D1B44248D201233B4099460E9B49
:1050F000013B9A46302304E0524601341355A64240
:1051000001D9202CF8D14B46002B00D183E00E9B17
:10511000013B99463023A54205D82EE04A4601348A
:105120001355AC4229D0202CF8D1FB060CD57B05B9
:1051300054D4A64263D0A54261D0119B102B50D00D
:10514000022B57D0202C32D1202301930E9B5A469C
:105150000093039763460295FFF75AFF05B0F0BC32
:10516000BB46B246A946A046F0BD01233B40994646
:1051700001233B422AD1B442B9D3FB061CD57B059F
:10518000DBD4002CD5D1119B102B5BD0119B022BB3
:105190006BD0302301240E9A13704346002B10D19C
:1051A0007B073ED52B260E9A631C1655CDE72300B0
:1051B000013430260E9AD654202CC5D04346002BFD
:1051C000EED02D260E9A631C1655BEE74346002BE3
:1051D0002FD0013DB44200D289E798E7119B102BF4
:1051E000B2D1BB0637D5202CAED058230E9A13551A
:1051F0000134A7E7202CA7D02300013407E0631E69
:10520000012CC0D0119A102A31D0022AD1D16226A5
:105210000E9AD65496E7FB06CED57B0500D488E7D8
:105220008BE723003E0790D520260E9A01331655B2
:105230008BE70C233B405A1E9341ED1AB44200D237
:1052400055E764E7BB060ED478230E9A0224137048
:1052500030235370A1E7202C00D175E778230E9AF4
:10526000135501346EE75823EFE76033EDE70E9AEC
:10527000A61E91464E44BA0602D55822327098E7CF
:105280007822327095E7C04610B5002800D110BDD5
:1052900001F098FCFBE7C0460B0010B5002802D0D7
:1052A00049681B68984710BDF0B55746DE464E4624
:1052B0004546E0B595B083460F00924698461E9A43
:1052C0001F9B10001900209EFFF7C9FC002800D08A
:1052D000EAE11E981F990122C54B5242FFF7A4FC38
:1052E000002800D014E11E981F990122C14B5242A0
:1052F000FFF7B0FC002800D0E9E01E981F990022BB
:10530000BD4BFFF7A7FC002800D0C8E01E981F99EE
:105310000022BA4BFFF788FC002800D0BFE01E989F
:105320001F9900220023FFF77FFC002800D0E4E053
:1053300000230B93229B5B0500D406260024302318
:1053400007E0172106AA013452181355013E202CFC
:1053500001D0092EF5D81E981F99FFF7A9FCA84B7C
:10536000F2009B181A685B68050008920993FFF722
:1053700087FC02000B001E981F99FFF7F2FB089AAA
:10538000099BFFF712FC06900791FFF7B5FC8146D9
:10539000FFF772FC02000B0006980799FFF7E1FB8C
:1053A0000022984B06900791FFF754FC002800D18B
:1053B0000DE101239C46E1444846FFF75DFC0200F5
:1053C0000B0008980999FFF735FC002802D000234C
:1053D00099460135002E00D1D9E006954D46B946D3
:1053E00014E006AA944617230A21634428000134D6
:1053F0001F19FFF77BF93031397028000A21013E6F
:10540000FFF774F9092D00D817E10500202CE8D129
:105410004F46069D20240CAE06AA172394466344EB
:1054200099465B46B34606930FE04B4628000A2197
:105430000134E618FFF732F93031280031700A21C3
:10544000FFF72CF9051E00D1E4E0202CEDD1069BDE
:105450005E469B460323229A1340012B18D1219BC1
:10546000002B15D00B9B002B00D1FDE0219B013BB5
:105470002193202B0CD93023219A07E0172006A96D
:10548000013409180B55944200D3CCE0202CF5D1FF
:10549000229B01940393219B0096029322E0229B7E
:1054A00052460493219B3900039358461E9B1F9C30
:1054B000029600930194434600F04AF9040020004C
:1054C00015B0F0BCBB46B246A946A046F0BD229B33
:1054D0005B070FD403224C4B22990192039121992F
:1054E000009302914346524639005846FFF790FD1B
:1054F0000400E4E70422454BEEE71E9A1F9B0020C0
:105500000021FFF72EFB01231E901F910B9311E743
:10551000229B54469B0711D1219B042B0ED9219B22
:1055200055469C465E46043C64442A004346013589
:1055300039002020B047A542F7D1B346344D2600AC
:105540002B1F99465B46A3461C003200E878434671
:105550003900013DA04701364D45F6D123005C4698
:105560009B46229B04349B07A9D55346219AE31AF4
:105570009A42A4D95E4615002200434639002020F5
:10558000B04753460134E31A9D42F5D897E7280007
:10559000FFF776FB02000B001E981F99FFF7E1FA58
:1055A0000022184B06900791FFF73EFB0CAE002837
:1055B00000D031E7069807990022124BFFF74AFB0B
:1055C000002800D028E7012301359D4324E700226D
:1055D000069807990B4BFFF727FB002800D0F9E648
:1055E0004B46002B5CD101239C46E144F2E6C046C9
:1055F000FFFFEFFFFFFFEF7F65CDCD4165CDCDC153
:10560000B8FF00100000E03F78E7001070E70010DE
:1056100080E70010069B5E469B460323229A1340B8
:10562000012B00D181E0202C00D131E70B9B002B16
:1056300027D02D23335501342AE74F46069D202CD1
:1056400000D1E7E63022331907E0172006A901341C
:1056500009180A55202C00D1DCE6A342F5D12E22F0
:105660000CAE0134F254D7E60C23229A134257D0E1
:10567000219B013B2193A34200D9FCE6202C00D1C1
:1056800006E7229B5B0703D52B2333550134FFE646
:10569000229B1B0700D4FBE6202333550134F7E699
:1056A000DB0700D496E69EE7229B55469B0711D167
:1056B000219B032B0ED9219B54469C465E46033DFD
:1056C000654422004346013439002020B047AC42F3
:1056D000F7D1B346B9465F461C4EEC1C2A00B078A1
:1056E000434649460135B847013EAC42F6D1229BBC
:1056F000BB464F469B0700D4E1E65346219AE31A86
:105700009A4200D8DBE65E46150022004346390087
:105710002020B04753460134E31AAB42F5D3CEE61E
:10572000219BA34200D9A6E6B2E6219B002B00D123
:1057300079E70B9B002B97D0219B013B21939C4247
:1057400000D298E6202C00D073E7A1E67CE7001099
:10575000F0B5DE4657464E464546E0B599B081461F
:105760008B4692469846229A239B10001900FFF719
:1057700076FA002800D0CAE0229823990122824BB1
:105780005242FFF767FA002800D0C0E02298239920
:1057900001227E4B5242FFF747FA002800D0B6E0C4
:1057A0002298239900220023FFF73EFA002800D018
:1057B000C9E1229B239C08930994089809998023A6
:1057C000269ADB001A400D928022269C120114407A
:1057D00022000B94269C07000E001C4200D0ADE076
:1057E0000B00034300D0D5E0002A00D00AE22200DB
:1057F00006332493022313400C930223134200D058
:1058000002E2259B042B00D20FE2043B0B93002302
:1058100004250A930022229823990023FFF704FA13
:10582000002800D003E25A4B269A134004930B9BA6
:105830000393249B0293089B099C0093019459466F
:10584000434652464846FFF72FFD02002020269B84
:105850001F27034059424B415B421840531C089399
:10586000594643464530C8470A9AD317D4185C4076
:10587000D30F0A936B1E0B9308AB9C46002567441D
:1058800001E0202D0FD020000A21FEF72FFF013567
:105890007E193031317020000A21FEF727FF2600E3
:1058A0000400092EEDD8052306930B9B594605935A
:1058B000002304930A3303930A9B4846029310ABD8
:1058C0000093089A43460195FFF7F8FB0C9B002BC9
:1058D0002DD05346C41A259BA34228D94D465F4676
:1058E00081461E00534639001A19202043460134D0
:1058F000A847A642F6D8534648462599C21A01320F
:105900000023914200D386E1013018180FE0269B56
:105910000493259B0393249B0293229B239C009337
:1059200001944346524659464846FFF7BDFC19B01C
:10593000F0BCBB46B246A946A046F0BD01432BD100
:105940000B9B2200002B00D154E700230A93249BD9
:105950000A9A0024934200DD85E1229823990022CF
:105960000023FFF761F9002800D035E1269B084AA3
:1059700002941A408023DB0013430493259B039376
:10598000089B099CCBE7C046FFFFEF7FFFFFEFFFBF
:10599000FFF7FFFF06232493B44B70009C46400D95
:1059A0006044FFF76DF9B24AB24BFFF7FEF8B24A16
:1059B000B24BFFF7DBF83603B14B360B3343040031
:1059C0000D00380019000022AE4BFFF7CAF8AE4AAE
:1059D000AE4BFFF7EAF802000B0020002900FFF7AA
:1059E000C5F8FFF765F90A90FFF74AF9A84AA94BED
:1059F00004000D00FFF7D9F80022A74BFFF7B6F817
:105A0000FFF756F9A54A0600A54B20002900FFF72D
:105A1000CCF8040030000D000C96FFF731F9A14AD4
:105A2000A14BFFF7C2F802000B0020002900FFF78E
:105A300098F802000B0006000F00FFF7B6F83200DE
:105A400004000D003B0030003900FFF78FF8002202
:105A50000E900F91954B20002900FFF78CF8002243
:105A6000934BFFF783F802000B0020002900FFF79B
:105A700082F800228F4BFFF779F802000B0020001C
:105A80002900FFF778F80D008021040032003B0068
:105A90000020C905FFF765F802000B00200029006F
:105AA000FFF764F802000B000E980F99FFF763F8F8
:105AB0000022734BFFF75AF87F4B0C9C9C466444C2
:105AC00000222305FFF771F806000F0002000B000B
:105AD00008980999FFF7A8F800280AD00A9B300017
